{
  "_format": "hh-sol-artifact-1",
  "contractName": "RepositoryRegistry",
  "sourceName": "contracts/RepositoryRegistry.sol",
  "abi": [
    {
      "inputs": [
        {
          "internalType": "address",
          "name": "initialOwner",
          "type": "address"
        }
      ],
      "stateMutability": "nonpayable",
      "type": "constructor"
    },
    {
      "inputs": [
        {
          "internalType": "address",
          "name": "owner",
          "type": "address"
        }
      ],
      "name": "OwnableInvalidOwner",
      "type": "error"
    },
    {
      "inputs": [
        {
          "internalType": "address",
          "name": "account",
          "type": "address"
        }
      ],
      "name": "OwnableUnauthorizedAccount",
      "type": "error"
    },
    {
      "anonymous": false,
      "inputs": [
        {
          "indexed": true,
          "internalType": "address",
          "name": "previousOwner",
          "type": "address"
        },
        {
          "indexed": true,
          "internalType": "address",
          "name": "newOwner",
          "type": "address"
        }
      ],
      "name": "OwnershipTransferred",
      "type": "event"
    },
    {
      "anonymous": false,
      "inputs": [
        {
          "indexed": true,
          "internalType": "string",
          "name": "repoId",
          "type": "string"
        },
        {
          "indexed": false,
          "internalType": "bytes32",
          "name": "repoHash",
          "type": "bytes32"
        },
        {
          "indexed": true,
          "internalType": "address",
          "name": "owner",
          "type": "address"
        },
        {
          "indexed": false,
          "internalType": "uint256",
          "name": "timestamp",
          "type": "uint256"
        }
      ],
      "name": "RepositoryRegistered",
      "type": "event"
    },
    {
      "inputs": [],
      "name": "owner",
      "outputs": [
        {
          "internalType": "address",
          "name": "",
          "type": "address"
        }
      ],
      "stateMutability": "view",
      "type": "function"
    },
    {
      "inputs": [
        {
          "internalType": "string",
          "name": "",
          "type": "string"
        }
      ],
      "name": "records",
      "outputs": [
        {
          "internalType": "bytes32",
          "name": "repoHash",
          "type": "bytes32"
        },
        {
          "internalType": "address",
          "name": "owner",
          "type": "address"
        },
        {
          "internalType": "uint256",
          "name": "timestamp",
          "type": "uint256"
        }
      ],
      "stateMutability": "view",
      "type": "function"
    },
    {
      "inputs": [
        {
          "internalType": "string",
          "name": "_repoId",
          "type": "string"
        },
        {
          "internalType": "bytes32",
          "name": "_repoHash",
          "type": "bytes32"
        },
        {
          "internalType": "address",
          "name": "_owner",
          "type": "address"
        }
      ],
      "name": "registerRepository",
      "outputs": [],
      "stateMutability": "nonpayable",
      "type": "function"
    },
    {
      "inputs": [],
      "name": "renounceOwnership",
      "outputs": [],
      "stateMutability": "nonpayable",
      "type": "function"
    },
    {
      "inputs": [
        {
          "internalType": "address",
          "name": "newOwner",
          "type": "address"
        }
      ],
      "name": "transferOwnership",
      "outputs": [],
      "stateMutability": "nonpayable",
      "type": "function"
    }
  ],
  "bytecode": "0x60806040523480156200001157600080fd5b5060405162000d0938038062000d098339818101604052810190620000379190620001f4565b80600073ffffffffffffffffffffffffffffffffffffffff168173ffffffffffffffffffffffffffffffffffffffff1603620000ad5760006040517f1e4fbdf7000000000000000000000000000000000000000000000000000000008152600401620000a4919062000237565b60405180910390fd5b620000be81620000c660201b60201c565b505062000254565b60008060009054906101000a900473ffffffffffffffffffffffffffffffffffffffff169050816000806101000a81548173ffffffffffffffffffffffffffffffffffffffff021916908373ffffffffffffffffffffffffffffffffffffffff1602179055508173ffffffffffffffffffffffffffffffffffffffff168173ffffffffffffffffffffffffffffffffffffffff167f8be0079c531659141344cd1fd0a4f28419497f9722a3daafe3b4186f6b6457e060405160405180910390a35050565b600080fd5b600073ffffffffffffffffffffffffffffffffffffffff82169050919050565b6000620001bc826200018f565b9050919050565b620001ce81620001af565b8114620001da57600080fd5b50565b600081519050620001ee81620001c3565b92915050565b6000602082840312156200020d576200020c6200018a565b5b60006200021d84828501620001dd565b91505092915050565b6200023181620001af565b82525050565b60006020820190506200024e600083018462000226565b92915050565b610aa580620002646000396000f3fe608060405234801561001057600080fd5b50600436106100575760003560e01c8063541e771d1461005c578063715018a61461008e5780638da5cb5b14610098578063ce8cb94d146100b6578063f2fde38b146100d2575b600080fd5b610076600480360381019061007191906106d3565b6100ee565b6040516100859392919061078f565b60405180910390f35b61009661014e565b005b6100a0610162565b6040516100ad91906107c6565b60405180910390f35b6100d060048036038101906100cb9190610839565b61018b565b005b6100ec60048036038101906100e791906108a8565b6103a0565b005b6001818051602081018201805184825260208301602085012081835280955050505050506000915090508060000154908060010160009054906101000a900473ffffffffffffffffffffffffffffffffffffffff16908060020154905083565b610156610426565b61016060006104ad565b565b60008060009054906101000a900473ffffffffffffffffffffffffffffffffffffffff16905090565b610193610426565b600073ffffffffffffffffffffffffffffffffffffffff166001846040516101bb9190610946565b908152602001604051809103902060010160009054906101000a900473ffffffffffffffffffffffffffffffffffffffff1673ffffffffffffffffffffffffffffffffffffffff1614610243576040517f08c379a000000000000000000000000000000000000000000000000000000000815260040161023a906109ba565b60405180910390fd5b6000801b8203610288576040517f08c379a000000000000000000000000000000000000000000000000000000000815260040161027f90610a26565b60405180910390fd5b60405180606001604052808381526020018273ffffffffffffffffffffffffffffffffffffffff168152602001428152506001846040516102c99190610946565b90815260200160405180910390206000820151816000015560208201518160010160006101000a81548173ffffffffffffffffffffffffffffffffffffffff021916908373ffffffffffffffffffffffffffffffffffffffff160217905550604082015181600201559050508073ffffffffffffffffffffffffffffffffffffffff168360405161035a9190610946565b60405180910390207ff858d11432e3f7fde79078cb753c3b4b4e9db4298e82dd32477ddca30b120c708442604051610393929190610a46565b60405180910390a3505050565b6103a8610426565b600073ffffffffffffffffffffffffffffffffffffffff168173ffffffffffffffffffffffffffffffffffffffff160361041a5760006040517f1e4fbdf700000000000000000000000000000000000000000000000000000000815260040161041191906107c6565b60405180910390fd5b610423816104ad565b50565b61042e610571565b73ffffffffffffffffffffffffffffffffffffffff1661044c610162565b73ffffffffffffffffffffffffffffffffffffffff16146104ab5761046f610571565b6040517f118cdaa70000000000000000000000000000000000000000000000000000000081526004016104a291906107c6565b60405180910390fd5b565b60008060009054906101000a900473ffffffffffffffffffffffffffffffffffffffff169050816000806101000a81548173ffffffffffffffffffffffffffffffffffffffff021916908373ffffffffffffffffffffffffffffffffffffffff1602179055508173ffffffffffffffffffffffffffffffffffffffff168173ffffffffffffffffffffffffffffffffffffffff167f8be0079c531659141344cd1fd0a4f28419497f9722a3daafe3b4186f6b6457e060405160405180910390a35050565b600033905090565b6000604051905090565b600080fd5b600080fd5b600080fd5b600080fd5b6000601f19601f8301169050919050565b7f4e487b7100000000000000000000000000000000000000000000000000000000600052604160045260246000fd5b6105e082610597565b810181811067ffffffffffffffff821117156105ff576105fe6105a8565b5b80604052505050565b6000610612610579565b905061061e82826105d7565b919050565b600067ffffffffffffffff82111561063e5761063d6105a8565b5b61064782610597565b9050602081019050919050565b82818337600083830152505050565b600061067661067184610623565b610608565b90508281526020810184848401111561069257610691610592565b5b61069d848285610654565b509392505050565b600082601f8301126106ba576106b961058d565b5b81356106ca848260208601610663565b91505092915050565b6000602082840312156106e9576106e8610583565b5b600082013567ffffffffffffffff81111561070757610706610588565b5b610713848285016106a5565b91505092915050565b6000819050919050565b61072f8161071c565b82525050565b600073ffffffffffffffffffffffffffffffffffffffff82169050919050565b600061076082610735565b9050919050565b61077081610755565b82525050565b6000819050919050565b61078981610776565b82525050565b60006060820190506107a46000830186610726565b6107b16020830185610767565b6107be6040830184610780565b949350505050565b60006020820190506107db6000830184610767565b92915050565b6107ea8161071c565b81146107f557600080fd5b50565b600081359050610807816107e1565b92915050565b61081681610755565b811461082157600080fd5b50565b6000813590506108338161080d565b92915050565b60008060006060848603121561085257610851610583565b5b600084013567ffffffffffffffff8111156108705761086f610588565b5b61087c868287016106a5565b935050602061088d868287016107f8565b925050604061089e86828701610824565b9150509250925092565b6000602082840312156108be576108bd610583565b5b60006108cc84828501610824565b91505092915050565b600081519050919050565b600081905092915050565b60005b838110156109095780820151818401526020810190506108ee565b60008484015250505050565b6000610920826108d5565b61092a81856108e0565b935061093a8185602086016108eb565b80840191505092915050565b60006109528284610915565b915081905092915050565b600082825260208201905092915050565b7f5265706f7369746f727920616c72656164792072656769737465726564000000600082015250565b60006109a4601d8361095d565b91506109af8261096e565b602082019050919050565b600060208201905081810360008301526109d381610997565b9050919050565b7f486173682063616e6e6f7420626520656d707479000000000000000000000000600082015250565b6000610a1060148361095d565b9150610a1b826109da565b602082019050919050565b60006020820190508181036000830152610a3f81610a03565b9050919050565b6000604082019050610a5b6000830185610726565b610a686020830184610780565b939250505056fea2646970667358221220a59e2e20155fad56a95d4e958861c39f61693b5530b74b6d4bebfbd0c0fd0e8664736f6c63430008140033",
  "linkReferences": {},
  "deployedLinkReferences": {}
}